:020000040800F2
:10000000F04C002089010008631600085B16000808
:100010005F160008A1020008111900080000000086
:100020000000000000000000000000009116000821
:10003000A5020008000000006516000893160008DD
:100040009F0100089F0100089F0100089F01000810
:100050009F0100089F0100089F0100089F01000800
:100060009F0100089F0100089F0100089F010008F0
:100070009F0100089F0100089F0100089F010008E0
:100080009F0100089F0100089F0100089F010008D0
:100090009F0100089F0100089F0100089F010008C0
:1000A0009F0100089F0100089F0100089F010008B0
:1000B0009F0100089F0100089F0100089F010008A0
:1000C0009F0100089F0100089F0100089F01000890
:1000D0009F010008ED1800089F0100089F0100081B
:1000E0009F0100089F0100089F01000800F002F82E
:1000F00000F03AF80AA090E8000C82448344AAF188
:100100000107DA4501D100F02FF8AFF2090EBAE885
:100110000F0013F0010F18BFFB1A43F0010318473B
:10012000281D0000481D0000103A24BF78C878C17F
:10013000FAD8520724BF30C830C144BF04680C60ED
:10014000704700000023002400250026103A28BF35
:1001500078C1FBD8520728BF30C148BF0B60704739
:100160001FB51FBD10B510BD00F067F81146FFF7B1
:10017000F7FF01F0D3FC00F085F803B4FFF7F2FFBE
:1001800003BC01F0E3FB000008480047FEE7FEE780
:10019000FEE7FEE7FEE7FEE7FEE7FEE7FEE7FEE737
:1001A00003480449024A044B70470000ED00000870
:1001B00028000020F04C0020F04800207047B2F1E9
:1001C00020030AD5C2F1200320FA02F001FA03F35A
:1001D00021FA02F140EA0300704721FA03F04FF0E0
:1001E000000170474FF0000200B513469446964652
:1001F000203922BFA0E80C50A0E80C50B1F120013A
:10020000BFF4F7AF090728BFA0E80C5048BF0CC0E7
:100210005DF804EB890028BF40F8042B08BF704745
:1002200048BF20F8022B11F0804F18BF00F8012BB7
:1002300070477047704770477047754600F02CF85C
:10024000AE4605006946534620F00700854618B0C3
:1002500020B5FFF7A5FFBDE820404FF000064FF0A6
:1002600000074FF000084FF0000B21F00701AC46EB
:10027000ACE8C009ACE8C009ACE8C009ACE8C0090A
:100280008D46704710B50446AFF300802046BDE8A8
:100290001040FFF772BF00000048704790480020F0
:1002A00000BFFEE7704700000021074AD1610749FF
:1002B000096941F00401054A11611146096941F0DB
:1002C00040011161704700003044002000200240CE
:1002D0000021074AD1610749096941F00201054A35
:1002E000116111464861096941F04001116170478F
:1002F00030440020002002400022054BDA61054A0C
:10030000126942F00102034B1A610180704700003C
:10031000304400200020024000201E49C96801F03E
:10032000100139B11C49C96941F002011A4AD16171
:1003300040F010001749C96801F0040139B11649AD
:10034000C96941F00101144AD16140F0040011492A
:10035000C96901F0010169B10F49C96941F004019E
:100360000D4AD16100BF0B49C96921F00101094A59
:10037000D16100BF00BF40F20111884206D105499A
:10038000C96921F00101034AD16101E00149C86056
:1003900000BF7047002002403044002070B5044682
:1003A00000F092FB054609E0601C38B124B100F072
:1003B0008BFB401BA04201D9032070BD1248C068CE
:1003C00000F001000028EFD10F48C06800F02000C5
:1003D00020B100BF20200C49C86000BF0A48C06897
:1003E00000F0100048B90848C06900F0010020B9C9
:1003F0000548C06800F0040018B1FFF78DFF012028
:10040000DBE70020D9E700000020024070B5044679
:10041000002594F82100022803D00420A0630125C0
:10042000C1E02068006820F00E00216808602068A4
:10043000006820F00100216808605C49206888425B
:1004400052D95A4978392068884201D1012047E0C1
:10045000564964392068884201D1102040E0534950
:1004600050392068884201D1801539E04F493C3924
:100470002068884201D1801432E04C492839206834
:10048000884202D14FF480302AE04849143920686C
:10049000884202D14FF4801022E04449206888420B
:1004A00001D140041CE042492068884201D101206A
:1004B00016E03F4914312068884201D110200FE036
:1004C0003B4928312068884201D1801508E038492D
:1004D0003C312068884201D1801401E04FF4803023
:1004E0003349091F086051E0304978392068884253
:1004F00001D1012047E02D4964392068884201D1AB
:10050000102040E0294950392068884201D18015E7
:1005100039E026493C392068884201D1801432E014
:10052000224928392068884202D14FF480302AE0DD
:100530001E4914392068884202D14FF4801022E00D
:100540001A492068884201D140041CE018492068FB
:10055000884201D1012016E01549143120688842F3
:1005600001D110200FE0124928312068884201D1C2
:10057000801508E00E493C312068884201D1801482
:1005800001E04FF48030094980394860012084F847
:10059000210000BF002084F8200000BF606B10B174
:1005A0002046616B8847284670BD000080000240ED
:1005B000080402402DE9F04104460E4601270025BB
:1005C00000BF2648007E012802D10220BDE8F0814C
:1005D00001202249087600BF2068022813D14CF27E
:1005E0005030FFF7DBFE90BB0120FFF75DFE4CF2C1
:1005F0005030FFF7D3FE07461948006920F0040089
:100600001749086123E04CF25030FFF7C7FEF0B9FC
:100610004FF0FF303060A56812E02846FFF758FE23
:100620004CF25030FFF7BAFE07460D48006920F043
:1006300002000B4908610FB1356007E005F5006560
:10064000D4E9021001EBC020A842E6D800BF00BFE9
:1006500000200249087600BF3846B7E73044002042
:10066000002002400348006940F080000149086111
:1006700000207047002002402DE9FE4F05468B46C2
:1006800017469846012600240020029000BF244807
:10069000007E012802D10220BDE8FE8F0120204902
:1006A000087600BF4CF25030FFF778FE064686BB56
:1006B000012D02D10120029006E0022D02D102207C
:1006C000029001E00420029000241EE02201B946BD
:1006D000C24648465146FFF772FD80B201900220A3
:1006E00000FB04B000900199FFF706FE4CF2503079
:1006F000FFF754FE06460B48006920F00100094947
:10070000086106B104E0601CC4B202988442DDDBDB
:1007100000BF00BF00200249087600BF3046BBE79B
:10072000304400200020024000200849096901F0FF
:10073000800151B10649054A516006495160114690
:10074000096901F0800101B10120704700200240D9
:1007500023016745AB89EFCD2DE9F8470246002319
:100760009C467BE14FF0010808FA03F4D1F80080C1
:1007700008EA0400A0427DD1DFF8F4A2D1F8048099
:10078000A8EB0A09D0453AD014DCB8F1030F50D0D9
:1007900009DCB8F1000F31D0B8F1010F1CD0B8F16D
:1007A000020F49D120E0B8F1110F18D0B8F1120FA3
:1007B00042D11EE0B9F5881F25D006DCB9F5803F8F
:1007C00020D0B9F5801F37D11AE0B9F5001F18D035
:1007D000B9F5041F30D117E0D1F80CC02DE0D1F8E5
:1007E0000C8008F1040C28E0D1F80C8008F1080C0A
:1007F00023E0D1F80C8008F10C0C1EE000BF00BF14
:1008000000BF00BF00BF00BFD1F80880B8F1000FE3
:1008100002D14FF0040C0BE0D1F80880B8F1010FC1
:1008200003D14FF0080C146102E04FF0080C546142
:1008300003E04FF0000C00E000BF00BFFF2801D82C
:10084000904601E002F104084646FF2802D84FEA2C
:10085000830803E0A3F108084FEA88084746D6F862
:1008600000804FF00F0909FA07F928EA09080CFA85
:1008700007F900E07AE048EA0908C6F80080D1F8F4
:10088000048008F08058B8F1805F6FD100BFDFF8B6
:10089000E481D8F8188048F00108DFF8D891C9F849
:1008A0001880C846D8F8188008F00108CDF80080F4
:1008B00000BF00BF4FEAB9384FEA930958F82950F2
:1008C0004FEA83784FEA18794FF00F0808FA09F8D1
:1008D00025EA0805DFF8A081424502D14FF0000863
:1008E00024E0DFF89881424502D14FF001081DE075
:1008F000DFF88C81424502D14FF0020816E0DFF8A4
:100900008481424502D14FF003080FE0DFF878817F
:10091000424502D14FF0040808E0DFF870814245FB
:1009200002D14FF0050801E04FF006084FEA837945
:100930004FEA197908FA09F848EA0505DFF8508105
:100940004FEA930948F82950D1F8048008F4803818
:10095000B8F5803F0BD1DFF83C81D8F8008048EA39
:100960000008DFF83091C9F800800AE075E0DFF890
:100970002481D8F8008028EA0008DFF81891C9F827
:100980000080D1F8048008F40038B8F5003F0ED19B
:10099000DFF8008108F10408D8F8008048EA000870
:1009A000DFF8F09009F10409C9F800800DE0DFF8E4
:1009B000E48008F10408D8F8008028EA0008DFF88D
:1009C000D49009F10409C9F80080D1F8048008F432
:1009D0008018B8F5801F0ED1DFF8B88008F108083C
:1009E000D8F8008048EA0008DFF8A89009F1080963
:1009F000C9F800800DE0DFF89C8008F10808D8F8FD
:100A0000008028EA0008DFF88C9009F10809C9F88D
:100A10000080D1F8048008F40018B8F5001F0ED14A
:100A2000DFF8708008F10C08D8F8008048EA000868
:100A3000DFF8609009F10C09C9F800800DE0DFF8DB
:100A4000548008F10C08D8F8008028EA0008DFF884
:100A5000449009F10C09C9F800805B1CD1F80080B2
:100A600028FA03F8B8F1000F7FF47CAEBDE8F887F0
:100A7000000011100010024000080140000C01406D
:100A8000001001400014014000180140001C01400A
:100A90000800014000040140024693680B400BB17E
:100AA000012000E00020704710B5C26821EA02036F
:100AB00002EA010443EA0443036110BD0AB1016183
:100AC00001E00B04036170470148006870470000B3
:100AD00008000020034800680349097808440149D8
:100AE00008607047080000201000002010B508487A
:100AF000006840F0100006490860052000F080F80A
:100B00000F2000F007F800F02BF8002010BD0000C7
:100B10000020024070B504460E4800784FF47A7108
:100B2000B1FBF0F00C490968B1FBF0F5284600F084
:100B3000E3FB08B1012070BD102C07D20022214632
:100B4000501E00F01EF80548046001E00120F2E7A5
:100B50000020F0E710000020000000200C00002022
:100B6000704701460846002809DB00F01F030122F8
:100B70009A4043099B0003F1E023C3F8002100BF22
:100B800070472DE9F05F80460D461646002700F0BD
:100B9000C1FE074639462A46334601F00700C0F138
:100BA000070ABAF1040F02D94FF0040A01E0C0F1BC
:100BB000070AD14600F1040ABAF1070F02D24FF03A
:100BC000000A01E0A0F1030AD4464FF0010A0AFA34
:100BD00009FAAAF1010A0AEA020A0AFA0CFA4FF023
:100BE000010B0BFA0CFBABF1010B0BEA030B4AEA0E
:100BF0000B042146404600F095FEBDE8F09F000042
:100C000000BF00F00702064B19684FF6FF031940BA
:100C1000044B0B4343EA0221014B196000BF7047AC
:100C20000CED00E00000FA0570B504460D460CB965
:100C3000012070BD5A48006800F00700A8420ED29B
:100C40005748006820F007002843554908600846C7
:100C5000006800F00700A84201D00120E9E72078F1
:100C600000F0020002281DD1207800F004000428C2
:100C700005D14C48406840F4E0604A49486020781B
:100C800000F00800082805D14648406840F460504C
:100C9000444948604348406820F0F000A168084398
:100CA00040494860207800F0010078B3606801286E
:100CB00006D13C48006800F4003090B90120B8E744
:100CC0006068022806D13748006800F0007040B91B
:100CD0000120AEE73348006800F0020008B90120A7
:100CE000A7E73048406820F00300616808432D49B9
:100CF0004860FFF7E9FE064609E0FFF7E5FE801BC6
:100D000041F28831884202D9032092E707E0254862
:100D1000406800F00C006168B0EB810FEDD1204815
:100D2000006800F00700A8420ED91D48006820F0B6
:100D3000070028431A4908600846006800F00700C9
:100D4000A84201D0012074E7207800F004000428B4
:100D500007D11448406820F4E060E1680843114975
:100D60004860207800F00800082808D10D48406845
:100D700020F46050216940EAC1000A49486000F04F
:100D80003FF808494968C1F30311074A515CC8405C
:100D90000649086006480068FFF7BCFE002048E7E7
:100DA0000020024000100240301E00080000002019
:100DB0000C0000200148006870470000000000207F
:100DC00000B5FFF7F7FF04494968C1F30221034A60
:100DD000515CC84000BD000000100240401E0008E9
:100DE00000B5FFF7E7FF04494968C1F3C221034A90
:100DF000515CC84000BD000000100240401E0008C9
:100E0000F0B585B00FF26C0C9CE8E01001A8A0E8EA
:100E1000E0101CA52D68009500210022002300246D
:100E20000020194D696801F00C05F5B1042D02D0C0
:100E3000082D19D101E0154819E001ADC1F3834631
:100E4000AC5D01F4803555B10F4D6D68C5F340457B
:100E50001DF805200D4D6543B5FBF2F302E00C4D86
:100E600004FB05F3184602E000BF084800BF00BFBE
:100E700005B0F0BD02030405060708090A0B0C0DB6
:100E80000E0F1010010200000010024000127A0044
:100E900000093D00F8B504460CB90120F8BD2078E2
:100EA00000F00100002878D0F848406800F00C00FD
:100EB00004280CD0F548406800F00C00082811D137
:100EC000F248406800F48030B0F5803F0AD1EF4826
:100ED000006800F4003000285FD0606800285CD112
:100EE0000120DBE700BF6068B0F5803F06D1E7482E
:100EF000006840F48030E549086028E0606858B92F
:100F0000E248006820F48030E04908600846006844
:100F100020F4802008601AE06068B0F5A02F0BD1A3
:100F2000DA48006840F48020D84908600846006824
:100F300040F4803008600AE0D448006820F4803033
:100F4000D24908600846006820F48020086000BF8D
:100F5000606888B1FFF7B8FD054606E0FFF7B4FD0D
:100F6000401B642801D9032098E7C848006800F4B2
:100F700000300028F2D010E0FFF7A6FD054606E09D
:100F8000FFF7A2FD401B642801D9032086E7BF4874
:100F9000006800F400300028F2D1207800F0020050
:100FA000022857D1B948406800F00C0050B1B7484A
:100FB000406800F00C00082818D1B448406800F4DC
:100FC000803098B9B148006800F0020020B1206973
:100FD000012801D0012061E7AC48006820F0F8004A
:100FE000616940EAC100A949086033E02069E8B1BD
:100FF0000120A7490860FFF767FD054606E0FFF7F7
:1010000063FD401B022801D9032047E79F48006881
:1010100000F002000028F2D09C48006820F0F800A0
:10102000616940EAC1009949086013E000209849CD
:101030000860FFF749FD054606E0FFF745FD401B48
:10104000022801D9032029E79048006800F0020037
:101050000028F2D1207800F0080008282DD1A069DE
:10106000B8B101208B490860FFF72EFD054606E068
:10107000FFF72AFD401B022801D903200EE7834811
:10108000406A00F002000028F2D0012000F0ECFAE3
:1010900013E000207F490860FFF716FD054606E0D3
:1010A000FFF712FD401B022801D90320F6E677481E
:1010B000406A00F002000028F2D1207800F004001D
:1010C000042873D100277148C06900F0805070B9BE
:1010D00000BF6E48C06940F080506C49C861084646
:1010E000C06900F08050009000BF00BF01276A482F
:1010F000006800F48070B0B96748006840F4807000
:1011000065490860FFF7E0FC054606E0FFF7DCFCF8
:10111000401B642801D90320C0E65F48006800F442
:1011200080700028F2D000BFE068012806D157483F
:10113000006A40F001005549086227E0E06858B9AC
:101140005248006A20F00100504908620846006ACF
:1011500020F00400086219E0E06805280BD14B4834
:10116000006A40F00400494908620846006A40F0FD
:10117000010008620AE04548006A20F00100434986
:1011800008620846006A20F00400086200BFE068B8
:10119000A0B1FFF799FC054609E0FFF795FC401B5D
:1011A00041F28831884202D9032077E622E03748AD
:1011B000006A00F002000028EFD012E0FFF784FC84
:1011C000054608E0FFF780FC401B41F28831884269
:1011D00001D9032062E62D48006A00F002000028D1
:1011E000F0D1012F05D12948C06920F0805027494E
:1011F000C86100BFE069C8B32448406800F00C0033
:10120000082860D0E069022848D1002020490866FB
:10121000FFF75AFC054606E0FFF756FC401B022884
:1012200001D903203AE61948006800F00070002850
:10123000F2D1206AB0F5803F07D11448406820F40D
:101240000030A168084311494860D4E90801084307
:101250000E49496821F4741108430C494860012083
:101260000B490866FFF730FC054607E03DE0FFF755
:101270002BFC401B022801D903200FE6034800681D
:1012800000F000700028F2D02FE0000000100240B3
:101290000000424280044242007000400020144995
:1012A0000866FFF711FC054606E0FFF70DFC401B42
:1012B000022801D90320F1E50E48006800F0007013
:1012C0000028F2D111E0E069012800D1E6E50948E3
:1012D000466806F48031206A814204D106F4701118
:1012E000606A814201D00120D8E50020D6E50000E7
:1012F000000042420010024070B504462546681EB8
:10130000B0F1807F01D301200FE0681E4FF0E02193
:1013100048610F214FF0FF3000F004FB00204FF038
:10132000E021886107200861002070BD704700003F
:101330002DE9F0470446206805682068C6682068E3
:1013400047694FF00008C14605F00F08B8F1000FDB
:101350000AD105F0200038B106F0200020B1204667
:1013600000F0C5F9BDE8F087B8F1000F71D007F0C3
:10137000010018B906F4907000286AD005F0010049
:1013800030B106F4807018B1E06B40F00100E0630A
:1013900005F0040030B107F0010018B1E06B40F037
:1013A0000200E06305F0020030B107F0010018B15F
:1013B000E06B40F00400E06305F0080048B106F07F
:1013C000200010B907F0010018B1E06B40F00800F0
:1013D000E063E06B68B305F0200028B106F0200060
:1013E00010B1204600F083F920684069C0F38019ED
:1013F000E06B00F0080010B9B9F1000F22D02046D0
:1014000000F055F92068406900F04000B0B1206854
:10141000406920F0400021684861606B50B1184875
:10142000616B4863606BFEF7F1FF10B1606B416B5D
:1014300088470CE02046FFF779FF08E02046FFF7D9
:1014400075FF04E02046FFF771FF0020E06389E7A5
:10145000FFE705F0800030B106F0800018B12046AB
:1014600000F014FA7EE705F0400030B106F04000CD
:1014700018B1204600F02BF974E700BF72E70000B6
:101480009B16000810B504460CB9012010BDA069D8
:1014900000B100E000BF94F8390028B9002084F8BA
:1014A0003800204600F028F8242084F8390020680D
:1014B000C06820F400502168C860204600F068F938
:1014C0002068006920F49040216808612068406924
:1014D00020F02A00216848612068C06840F400506C
:1014E0002168C8600020E063202084F8390084F877
:1014F0003A000020CAE7000010B586B0044628492B
:10150000206888424AD100BF00BF2648806940F069
:101510000400244988610846806900F004000190B5
:1015200000BF00BF00BF00BF00BF0846806940F099
:10153000040088610846806900F00400019000BF43
:1015400000BF00BF00BF00BF0846806940F4804074
:1015500088610846806900F48040019000BF00BFA8
:1015600000BF481502900220039001200490032040
:10157000059002A90C48FFF7EFF84FF48060029045
:101580000020039002A90848FFF7E6F82520FFF79E
:10159000E8FA032211462520FFF7F3FA06B010BD42
:1015A00000380140001002400008014010B5034619
:1015B00093F83A0020282FD101B10AB9012010BDBB
:1015C00000BF93F83800012801D10220F7E701207D
:1015D00083F8380000BF99629A85DA850020D863C5
:1015E000222083F83A0000BF002083F8380000BFB3
:1015F0001868C06840F480701C68E0601868406932
:1016000040F001001C6860611868C06840F020006C
:101610001C68E0600020D2E70220D0E70A4A016897
:1016200091420FD109490968B1F5705F0AD20849A2
:101630000978084A054B1B68D15404490968491CBC
:10164000024A11607047000000380140200000206D
:101650001E00002030000020704700BFFEE700BFE2
:10166000FEE770477047000008B508490968C908D7
:101670004FF47A72B1FBF2F14143009100BF00BF19
:1016800000994A1E00920029F9D108BD00000020EF
:10169000704710B5FFF71EFA10BD70B505466C6AAD
:1016A0000020E085E0842046FFF740FE70BD016821
:1016B000C96821F490710268D1600168496921F01C
:1016C000010102685161202180F83A10704710B57D
:1016D00004462068C06820F040002168C8602020CF
:1016E00084F839002046FFF7B7FF002010BD70B521
:1016F000044694F83A00222847D1A068B0F5805FEC
:101700000CD1206950B90025A66A20684068C0F352
:1017100008003080A06A801CA06215E0A56A00263F
:10172000A068B0F5805F03D0A06828B9206918B917
:1017300020684068287004E02068406800F07F005E
:101740002870A06A401CA062E08D401E80B2E08537
:10175000C8B92068C06820F020002168C8602068EF
:10176000C06820F480702168C8602068406920F05B
:10177000010021684861202084F83A002046FFF7E4
:101780004DFF002070BD0020FCE70220FAE70000BA
:1017900070B504462168096921F44051E26811439B
:1017A000226811612269A1681143626941EA020558
:1017B0002168C96841F20C62914329432268D160D3
:1017C0002168496921F44071A2691143226851617D
:1017D0002D4A2168914202D1FFF702FB01E0FFF799
:1017E000EFFA00EBC00101EB001162689200B1FB5F
:1017F000F2F100EBC00202EB001263689B00B2FB47
:10180000F3F26423B2FBF3F202EBC20303EB021226
:10181000A1EB8201322202EB01116422B1FBF2F151
:1018200001F0F00100EBC00202EB001263689B00C4
:10183000B2FBF3F26423B2FBF3F201EB021200EB12
:10184000C00101EB001163689B00B1FBF3F100EBF9
:10185000C00303EB00136668B600B3FBF6F364261F
:10186000B3FBF6F303EBC30606EB0313A1EB830113
:10187000322303EB01116423B1FBF3F101F00F01FB
:1018800011442268916070BD00380140014691F812
:101890003900212828D18868B0F5805F0BD108690C
:1018A00048B90A6A1088C0F308000B685860086AD3
:1018B000801C086205E00B6A581C086218780B68E7
:1018C0005860C88C401E80B2C88458B90868C06887
:1018D00020F080000B68D8600868C06840F04000C5
:1018E0000B68D860002070470220FCE710B506485E
:1018F000FFF71EFD00BF012204490348FFF756FE13
:101900000028F8D110BD0000504400201E00002027
:1019100000BFFEE702480068C0F3022070470000E5
:101920000CED00E010B5002804DB0A07130E054A91
:10193000135406E00A07140E034A00F00F031B1F9E
:10194000D45410BD00E400E018ED00E000BF704783
:1019500001490860704700001400002010B50446DB
:101960004FF47A7104FB01F000F002F810BD0000A2
:1019700070B5034600224FF0E02675690D4E3668BB
:1019800003FB06F44FF0E026B16910E04FF0E026CB
:10199000B06988420BD0884202D20E1A324402E06B
:1019A0002E1A0E4432440146A24200D300E0EDE775
:1019B00000BF70BD1400002010B504462068074920
:1019C0000840B0F1005F08D16068054908602068F0
:1019D00000F0DAF902480068804710BD0000FE2FD1
:1019E000040000202DE9F05F06460F4690460024D3
:1019F000B3463D46A1461BE068784FEA002A2878A6
:101A000040EA0A0AAD1C2046611C8CB20D4921F83F
:101A100010A0B4F5806F07D100244FF480625846BF
:101A200000F020F90BF5006B09F102001FFA80F9B4
:101A3000C145E1D324B122460249584600F012F9CB
:101A4000BDE8F09F303C002000B585B000BF00BF6E
:101A50000D48806940F004000B49886108468069A0
:101A600000F00400009000BF00BF00BF0120019003
:101A700000200290022003900320049001A9034853
:101A8000FEF76AFE05B000BD0010024000080140EC
:101A900000B585B000BF00BF1D48806940F0080058
:101AA0001B4988610846806900F00800009000BF6B
:101AB00000BF00BF88150190012002900390032011
:101AC000049001A91348FEF747FE00BF012211024E
:101AD0001048FEF7F3FF00BF00BF0D48806940F0DB
:101AE00010000B4988610846806900F010000090E2
:101AF00000BF00BF4FF400500190012002900390FE
:101B00000320049001A90448FEF726FE05B000BD9D
:101B100000100240000C0140001001402DE9F0418E
:101B20000025002400260027FEF7E0FF4FF4E01018
:101B300000F02FF94820FFF70BFF4FF4E13000F0E1
:101B40005BF9FFF7A5FFFFF77FFF4FF4FA70FFF790
:101B500005FF00BF01213348FEF79EFF01284CD14D
:101B60006420FFF7FBFE01212E48FEF795FF0128B8
:101B700054D141E02C48006850B32B48006885429E
:101B800027D1294804680025002027490860322011
:101B9000FFF7E4FEE4B14FF00050406B00F07F40EF
:101BA000B0F1006F17D1224620492148FFF71AFFF4
:101BB0003220FFF7D3FE1E48406800F07F40B0F1AE
:101BC000006F08D10A20FFF7C9FE1948FFF7F4FE9D
:101BD00001E01548056800BF4FF480711548FEF715
:101BE00063FF00BF00BF4FF400511348FEF75CFFD6
:101BF00000BF1E20FFF7B2FEBCE70EE00C484068B5
:101C000000F07F40B0F1006F06D10A20FFF7A6FE7A
:101C10000748FFF7D1FE00E09CE7EFE70020BDE8B2
:101C2000F08100000008014020000020300000206A
:101C300000800008000C01400010014030B5034650
:101C40000C461546002207E0184600F008F824F874
:101C500012009B1C501C82B2AA42F5DB30BD01462B
:101C6000088870472DE9F04F85B080468A461746B0
:101C7000B8F1006F02D3B8F1406F02D305B0BDE8F0
:101C8000F08FFEF751FDA8F1006B4FEA9B25CBF3D7
:101C90004809C9F50074A74200DC3C4655E04FF006
:101CA000006101EB85208A142B49FFF7C7FF00264E
:101CB0000BE009EB0600284931F810004FF6FF71E0
:101CC000884200D003E0701C86B2A642F1DB00BF60
:101CD000A64222DA00200190012002900490C00662
:101CE00000EB85200390694601A8FEF763FC0026FF
:101CF00008E03AF8160006EB0901174A22F811002D
:101D0000701C86B2A642F4DB4FF0006101EB852027
:101D10008A14114900F022F804E022465146404658
:101D200000F01CF8A74200D110E06D1C4FF0000934
:101D30000AEB440A08EB4408381B87B2B7F5007F6A
:101D400002DD4FF4007400E03C46A8E700BFFEF758
:101D500089FC00BF92E70000904400202DE9F0418B
:101D600004460E46174600250AE036F815C06246BE
:101D7000002321460120FEF77FFCA41C681C85B2CD
:101D8000BD42F2DBBDE8F08100BF80F3088800BFF0
:101D9000704730B58FB005460124282105A8FEF70D
:101DA00021FA14216846FEF71DFA0120059000046F
:101DB00006900020079002200C90C1030D910E9513
:101DC00005A8FFF767F804460CB100BFFEE70F2037
:101DD000009002200190002002904FF48060039058
:101DE0000020049002216846FEF71EFF04460CB155
:101DF00000BFFEE70FB030BD10B5044609480A49E0
:101E000008600846446000218160C1600161816111
:101E10000C214161FFF736FB012204490248FFF71C
:101E2000C5FB10BD00380140504400201E000020BA
:101E3000000000000000000001020304060708097A
:101E40000000000001020304681E000800000020DA
:101E500024000000280100088C1E00082400002037
:101E6000CC4C0000440100080024F40000000000F5
:101E70000000000010000000010000000000000051
:0C1E800000000000000000000000000056
:04000005080000ED02
:00000001FF
